{
  "contractName": "Dex",
  "abi": [
    {
      "anonymous": false,
      "inputs": [
        {
          "indexed": true,
          "internalType": "address",
          "name": "previousOwner",
          "type": "address"
        },
        {
          "indexed": true,
          "internalType": "address",
          "name": "newOwner",
          "type": "address"
        }
      ],
      "name": "OwnershipTransferred",
      "type": "event"
    },
    {
      "inputs": [
        {
          "internalType": "bytes32",
          "name": "ticker",
          "type": "bytes32"
        },
        {
          "internalType": "address",
          "name": "tokenAddress",
          "type": "address"
        }
      ],
      "name": "addToken",
      "outputs": [],
      "stateMutability": "nonpayable",
      "type": "function"
    },
    {
      "inputs": [
        {
          "internalType": "address",
          "name": "",
          "type": "address"
        },
        {
          "internalType": "bytes32",
          "name": "",
          "type": "bytes32"
        }
      ],
      "name": "balances",
      "outputs": [
        {
          "internalType": "uint256",
          "name": "",
          "type": "uint256"
        }
      ],
      "stateMutability": "view",
      "type": "function",
      "constant": true
    },
    {
      "inputs": [
        {
          "internalType": "uint256",
          "name": "amount",
          "type": "uint256"
        },
        {
          "internalType": "bytes32",
          "name": "ticker",
          "type": "bytes32"
        }
      ],
      "name": "deposit",
      "outputs": [],
      "stateMutability": "nonpayable",
      "type": "function"
    },
    {
      "inputs": [],
      "name": "depositEth",
      "outputs": [],
      "stateMutability": "payable",
      "type": "function",
      "payable": true
    },
    {
      "inputs": [],
      "name": "nextOrderId",
      "outputs": [
        {
          "internalType": "uint256",
          "name": "",
          "type": "uint256"
        }
      ],
      "stateMutability": "view",
      "type": "function",
      "constant": true
    },
    {
      "inputs": [
        {
          "internalType": "bytes32",
          "name": "",
          "type": "bytes32"
        },
        {
          "internalType": "uint256",
          "name": "",
          "type": "uint256"
        },
        {
          "internalType": "uint256",
          "name": "",
          "type": "uint256"
        }
      ],
      "name": "orderBook",
      "outputs": [
        {
          "internalType": "uint256",
          "name": "id",
          "type": "uint256"
        },
        {
          "internalType": "address",
          "name": "trader",
          "type": "address"
        },
        {
          "internalType": "enum Dex.Side",
          "name": "side",
          "type": "uint8"
        },
        {
          "internalType": "bytes32",
          "name": "ticker",
          "type": "bytes32"
        },
        {
          "internalType": "uint256",
          "name": "amount",
          "type": "uint256"
        },
        {
          "internalType": "uint256",
          "name": "price",
          "type": "uint256"
        },
        {
          "internalType": "uint256",
          "name": "filled",
          "type": "uint256"
        }
      ],
      "stateMutability": "view",
      "type": "function",
      "constant": true
    },
    {
      "inputs": [],
      "name": "owner",
      "outputs": [
        {
          "internalType": "address",
          "name": "",
          "type": "address"
        }
      ],
      "stateMutability": "view",
      "type": "function",
      "constant": true
    },
    {
      "inputs": [],
      "name": "renounceOwnership",
      "outputs": [],
      "stateMutability": "nonpayable",
      "type": "function"
    },
    {
      "inputs": [
        {
          "internalType": "uint256",
          "name": "",
          "type": "uint256"
        }
      ],
      "name": "tokenList",
      "outputs": [
        {
          "internalType": "bytes32",
          "name": "",
          "type": "bytes32"
        }
      ],
      "stateMutability": "view",
      "type": "function",
      "constant": true
    },
    {
      "inputs": [
        {
          "internalType": "bytes32",
          "name": "",
          "type": "bytes32"
        }
      ],
      "name": "tokenMapping",
      "outputs": [
        {
          "internalType": "bytes32",
          "name": "ticker",
          "type": "bytes32"
        },
        {
          "internalType": "address",
          "name": "tokenAddress",
          "type": "address"
        }
      ],
      "stateMutability": "view",
      "type": "function",
      "constant": true
    },
    {
      "inputs": [
        {
          "internalType": "address",
          "name": "newOwner",
          "type": "address"
        }
      ],
      "name": "transferOwnership",
      "outputs": [],
      "stateMutability": "nonpayable",
      "type": "function"
    },
    {
      "inputs": [
        {
          "internalType": "uint256",
          "name": "amount",
          "type": "uint256"
        },
        {
          "internalType": "bytes32",
          "name": "ticker",
          "type": "bytes32"
        }
      ],
      "name": "withdraw",
      "outputs": [],
      "stateMutability": "nonpayable",
      "type": "function"
    },
    {
      "inputs": [
        {
          "internalType": "uint256",
          "name": "amount",
          "type": "uint256"
        }
      ],
      "name": "withdrawEth",
      "outputs": [],
      "stateMutability": "nonpayable",
      "type": "function"
    },
    {
      "inputs": [
        {
          "internalType": "bytes32",
          "name": "ticker",
          "type": "bytes32"
        },
        {
          "internalType": "enum Dex.Side",
          "name": "side",
          "type": "uint8"
        }
      ],
      "name": "getOrderBook",
      "outputs": [
        {
          "components": [
            {
              "internalType": "uint256",
              "name": "id",
              "type": "uint256"
            },
            {
              "internalType": "address",
              "name": "trader",
              "type": "address"
            },
            {
              "internalType": "enum Dex.Side",
              "name": "side",
              "type": "uint8"
            },
            {
              "internalType": "bytes32",
              "name": "ticker",
              "type": "bytes32"
            },
            {
              "internalType": "uint256",
              "name": "amount",
              "type": "uint256"
            },
            {
              "internalType": "uint256",
              "name": "price",
              "type": "uint256"
            },
            {
              "internalType": "uint256",
              "name": "filled",
              "type": "uint256"
            }
          ],
          "internalType": "struct Dex.Order[]",
          "name": "",
          "type": "tuple[]"
        }
      ],
      "stateMutability": "view",
      "type": "function",
      "constant": true
    },
    {
      "inputs": [
        {
          "internalType": "enum Dex.Side",
          "name": "side",
          "type": "uint8"
        },
        {
          "internalType": "bytes32",
          "name": "ticker",
          "type": "bytes32"
        },
        {
          "internalType": "uint256",
          "name": "amount",
          "type": "uint256"
        },
        {
          "internalType": "uint256",
          "name": "price",
          "type": "uint256"
        }
      ],
      "name": "createLimitOrder",
      "outputs": [],
      "stateMutability": "nonpayable",
      "type": "function"
    },
    {
      "inputs": [
        {
          "internalType": "enum Dex.Side",
          "name": "side",
          "type": "uint8"
        },
        {
          "internalType": "bytes32",
          "name": "ticker",
          "type": "bytes32"
        },
        {
          "internalType": "uint256",
          "name": "amount",
          "type": "uint256"
        }
      ],
      "name": "createMarketOrder",
      "outputs": [],
      "stateMutability": "nonpayable",
      "type": "function"
    }
  ],
  "bytecode": "0x608060405260006004553480156200001657600080fd5b50620000376200002b6200003d60201b60201c565b6200004560201b60201c565b62000109565b600033905090565b60008060009054906101000a900473ffffffffffffffffffffffffffffffffffffffff169050816000806101000a81548173ffffffffffffffffffffffffffffffffffffffff021916908373ffffffffffffffffffffffffffffffffffffffff1602179055508173ffffffffffffffffffffffffffffffffffffffff168173ffffffffffffffffffffffffffffffffffffffff167f8be0079c531659141344cd1fd0a4f28419497f9722a3daafe3b4186f6b6457e060405160405180910390a35050565b61376380620001196000396000f3fe6080604052600436106100f35760003560e01c80639776aacf1161008a578063ba58ea6811610059578063ba58ea681461030e578063c311d0491461034b578063c9630cb014610374578063f2fde38b1461039d576100f3565b80639776aacf1461025657806399ec2f1c1461027f5780639ead7222146102a8578063a8d2021a146102e5576100f3565b8063667cb4ba116100c6578063667cb4ba146101ad5780636f3b62f9146101eb578063715018a6146102145780638da5cb5b1461022b576100f3565b80630bb431b6146100f85780631f14df691461013b5780632a58b33014610178578063439370b1146101a3575b600080fd5b34801561010457600080fd5b5061011f600480360381019061011a9190612b40565b6103c6565b6040516101329796959493929190612c69565b60405180910390f35b34801561014757600080fd5b50610162600480360381019061015d9190612d04565b61045f565b60405161016f9190612d44565b60405180910390f35b34801561018457600080fd5b5061018d610484565b60405161019a9190612d44565b60405180910390f35b6101ab61048a565b005b3480156101b957600080fd5b506101d460048036038101906101cf9190612d5f565b61057c565b6040516101e2929190612d8c565b60405180910390f35b3480156101f757600080fd5b50610212600480360381019061020d9190612dda565b6105c0565b005b34801561022057600080fd5b5061022961109d565b005b34801561023757600080fd5b50610240611125565b60405161024d9190612e41565b60405180910390f35b34801561026257600080fd5b5061027d60048036038101906102789190612e5c565b61114e565b005b34801561028b57600080fd5b506102a660048036038101906102a19190612e9c565b611289565b005b3480156102b457600080fd5b506102cf60048036038101906102ca9190612eef565b6120c8565b6040516102dc9190612f1c565b60405180910390f35b3480156102f157600080fd5b5061030c60048036038101906103079190612f37565b6120ec565b005b34801561031a57600080fd5b5061033560048036038101906103309190612f77565b612390565b6040516103429190613130565b60405180910390f35b34801561035757600080fd5b50610372600480360381019061036d9190612eef565b6124e9565b005b34801561038057600080fd5b5061039b60048036038101906103969190612f37565b6126f8565b005b3480156103a957600080fd5b506103c460048036038101906103bf9190613152565b61290b565b005b600560205282600052604060002060205281600052604060002081815481106103ee57600080fd5b906000526020600020906006020160009250925050508060000154908060010160009054906101000a900473ffffffffffffffffffffffffffffffffffffffff16908060010160149054906101000a900460ff16908060020154908060030154908060040154908060050154905087565b6003602052816000526040600020602052806000526040600020600091509150505481565b60045481565b34600360003373ffffffffffffffffffffffffffffffffffffffff1673ffffffffffffffffffffffffffffffffffffffff16815260200190815260200160002060007f455448000000000000000000000000000000000000000000000000000000000081526020019081526020016000205461050691906131ae565b600360003373ffffffffffffffffffffffffffffffffffffffff1673ffffffffffffffffffffffffffffffffffffffff16815260200190815260200160002060007f4554480000000000000000000000000000000000000000000000000000000000815260200190815260200160002081905550565b60016020528060005260406000206000915090508060000154908060010160009054906101000a900473ffffffffffffffffffffffffffffffffffffffff16905082565b600060018111156105d4576105d3612be3565b5b8460018111156105e7576105e6612be3565b5b14156106ac5780826105f99190613204565b600360003373ffffffffffffffffffffffffffffffffffffffff1673ffffffffffffffffffffffffffffffffffffffff16815260200190815260200160002060007f455448000000000000000000000000000000000000000000000000000000000081526020019081526020016000205410156106ab576040517f08c379a00000000000000000000000000000000000000000000000000000000081526004016106a2906132bb565b60405180910390fd5b5b6001808111156106bf576106be612be3565b5b8460018111156106d2576106d1612be3565b5b141561076c5781600360003373ffffffffffffffffffffffffffffffffffffffff1673ffffffffffffffffffffffffffffffffffffffff168152602001908152602001600020600085815260200190815260200160002054101561076b576040517f08c379a0000000000000000000000000000000000000000000000000000000008152600401610762906132bb565b60405180910390fd5b5b600060056000858152602001908152602001600020600086600181111561079657610795612be3565b5b81526020019081526020016000209050806040518060e0016040528060045481526020013373ffffffffffffffffffffffffffffffffffffffff1681526020018760018111156107e9576107e8612be3565b5b8152602001868152602001858152602001848152602001600081525090806001815401808255809150506001900390600052602060002090600602016000909190919091506000820151816000015560208201518160010160006101000a81548173ffffffffffffffffffffffffffffffffffffffff021916908373ffffffffffffffffffffffffffffffffffffffff16021790555060408201518160010160146101000a81548160ff021916908360018111156108aa576108a9612be3565b5b0217905550606082015181600201556080820151816003015560a0820151816004015560c082015181600501555050600081600183805490506108ed91906132db565b815481106108fe576108fd61330f565b5b90600052602060002090600602019050600080838054905011610922576000610934565b6001838054905061093391906132db565b5b90506000600181111561094a57610949612be3565b5b87600181111561095d5761095c612be3565b5b1415610cdb575b6000811115610cd6578281815481106109805761097f61330f565b5b906000526020600020906006020160040154836001836109a091906132db565b815481106109b1576109b061330f565b5b90600052602060002090600602016004015411156109ce57610cd6565b6000836001836109de91906132db565b815481106109ef576109ee61330f565b5b90600052602060002090600602016040518060e0016040529081600082015481526020016001820160009054906101000a900473ffffffffffffffffffffffffffffffffffffffff1673ffffffffffffffffffffffffffffffffffffffff1673ffffffffffffffffffffffffffffffffffffffff1681526020016001820160149054906101000a900460ff166001811115610a8d57610a8c612be3565b5b6001811115610a9f57610a9e612be3565b5b81526020016002820154815260200160038201548152602001600482015481526020016005820154815250509050838281548110610ae057610adf61330f565b5b906000526020600020906006020184600184610afc91906132db565b81548110610b0d57610b0c61330f565b5b9060005260206000209060060201600082015481600001556001820160009054906101000a900473ffffffffffffffffffffffffffffffffffffffff168160010160006101000a81548173ffffffffffffffffffffffffffffffffffffffff021916908373ffffffffffffffffffffffffffffffffffffffff1602179055506001820160149054906101000a900460ff168160010160146101000a81548160ff02191690836001811115610bc457610bc3612be3565b5b02179055506002820154816002015560038201548160030155600482015481600401556005820154816005015590505080848381548110610c0857610c0761330f565b5b90600052602060002090600602016000820151816000015560208201518160010160006101000a81548173ffffffffffffffffffffffffffffffffffffffff021916908373ffffffffffffffffffffffffffffffffffffffff16021790555060408201518160010160146101000a81548160ff02191690836001811115610c9257610c91612be3565b5b0217905550606082015181600201556080820151816003015560a0820151816004015560c082015181600501559050508180610ccd9061333e565b92505050610964565b61107c565b600180811115610cee57610ced612be3565b5b876001811115610d0157610d00612be3565b5b141561107b575b600081111561107a57828181548110610d2457610d2361330f565b5b90600052602060002090600602016004015483600183610d4491906132db565b81548110610d5557610d5461330f565b5b9060005260206000209060060201600401541015610d725761107a565b600083600183610d8291906132db565b81548110610d9357610d9261330f565b5b90600052602060002090600602016040518060e0016040529081600082015481526020016001820160009054906101000a900473ffffffffffffffffffffffffffffffffffffffff1673ffffffffffffffffffffffffffffffffffffffff1673ffffffffffffffffffffffffffffffffffffffff1681526020016001820160149054906101000a900460ff166001811115610e3157610e30612be3565b5b6001811115610e4357610e42612be3565b5b81526020016002820154815260200160038201548152602001600482015481526020016005820154815250509050838281548110610e8457610e8361330f565b5b906000526020600020906006020184600184610ea091906132db565b81548110610eb157610eb061330f565b5b9060005260206000209060060201600082015481600001556001820160009054906101000a900473ffffffffffffffffffffffffffffffffffffffff168160010160006101000a81548173ffffffffffffffffffffffffffffffffffffffff021916908373ffffffffffffffffffffffffffffffffffffffff1602179055506001820160149054906101000a900460ff168160010160146101000a81548160ff02191690836001811115610f6857610f67612be3565b5b02179055506002820154816002015560038201548160030155600482015481600401556005820154816005015590505080848381548110610fac57610fab61330f565b5b90600052602060002090600602016000820151816000015560208201518160010160006101000a81548173ffffffffffffffffffffffffffffffffffffffff021916908373ffffffffffffffffffffffffffffffffffffffff16021790555060408201518160010160146101000a81548160ff0219169083600181111561103657611035612be3565b5b0217905550606082015181600201556080820151816003015560a0820151816004015560c0820151816005015590505081806110719061333e565b92505050610d08565b5b5b6004600081548092919061108f90613368565b919050555050505050505050565b6110a5612a03565b73ffffffffffffffffffffffffffffffffffffffff166110c3611125565b73ffffffffffffffffffffffffffffffffffffffff1614611119576040517f08c379a0000000000000000000000000000000000000000000000000000000008152600401611110906133fd565b60405180910390fd5b6111236000612a0b565b565b60008060009054906101000a900473ffffffffffffffffffffffffffffffffffffffff16905090565b611156612a03565b73ffffffffffffffffffffffffffffffffffffffff16611174611125565b73ffffffffffffffffffffffffffffffffffffffff16146111ca576040517f08c379a00000000000000000000000000000000000000000000000000000000081526004016111c1906133fd565b60405180910390fd5b60405180604001604052808381526020018273ffffffffffffffffffffffffffffffffffffffff16815250600160008481526020019081526020016000206000820151816000015560208201518160010160006101000a81548173ffffffffffffffffffffffffffffffffffffffff021916908373ffffffffffffffffffffffffffffffffffffffff16021790555090505060028290806001815401808255809150506001900390600052602060002001600090919091909150555050565b60018081111561129c5761129b612be3565b5b8360018111156112af576112ae612be3565b5b14156113495780600360003373ffffffffffffffffffffffffffffffffffffffff1673ffffffffffffffffffffffffffffffffffffffff1681526020019081526020016000206000848152602001908152602001600020541015611348576040517f08c379a000000000000000000000000000000000000000000000000000000000815260040161133f90613469565b60405180910390fd5b5b600080600181111561135e5761135d612be3565b5b84600181111561137157611370612be3565b5b14156113805760019050611385565b600090505b600060056000858152602001908152602001600020600083815260200190815260200160002090506000805b8280549050811080156113c357508482105b15611e7457600082866113d691906132db565b905060008483815481106113ed576113ec61330f565b5b9060005260206000209060060201600501548584815481106114125761141161330f565b5b90600052602060002090600602016003015461142e91906132db565b905060008282111561144257829050611446565b8190505b808561145291906131ae565b9450808685815481106114685761146761330f565b5b90600052602060002090600602016005015461148491906131ae565b8685815481106114975761149661330f565b5b90600052602060002090600602016005018190555060008685815481106114c1576114c061330f565b5b906000526020600020906006020160040154826114de9190613204565b9050600060018111156114f4576114f3612be3565b5b8b600181111561150757611506612be3565b5b14156119df5780600360003373ffffffffffffffffffffffffffffffffffffffff1673ffffffffffffffffffffffffffffffffffffffff16815260200190815260200160002060007f4554480000000000000000000000000000000000000000000000000000000000815260200190815260200160002054101561158a57600080fd5b81600360003373ffffffffffffffffffffffffffffffffffffffff1673ffffffffffffffffffffffffffffffffffffffff16815260200190815260200160002060008c8152602001908152602001600020546115e691906131ae565b600360003373ffffffffffffffffffffffffffffffffffffffff1673ffffffffffffffffffffffffffffffffffffffff16815260200190815260200160002060008c81526020019081526020016000208190555080600360003373ffffffffffffffffffffffffffffffffffffffff1673ffffffffffffffffffffffffffffffffffffffff16815260200190815260200160002060007f45544800000000000000000000000000000000000000000000000000000000008152602001908152602001600020546116b691906132db565b600360003373ffffffffffffffffffffffffffffffffffffffff1673ffffffffffffffffffffffffffffffffffffffff16815260200190815260200160002060007f455448000000000000000000000000000000000000000000000000000000000081526020019081526020016000208190555081600360008988815481106117425761174161330f565b5b906000526020600020906006020160010160009054906101000a900473ffffffffffffffffffffffffffffffffffffffff1673ffffffffffffffffffffffffffffffffffffffff1673ffffffffffffffffffffffffffffffffffffffff16815260200190815260200160002060008c8152602001908152602001600020546117ca91906132db565b600360008988815481106117e1576117e061330f565b5b906000526020600020906006020160010160009054906101000a900473ffffffffffffffffffffffffffffffffffffffff1673ffffffffffffffffffffffffffffffffffffffff1673ffffffffffffffffffffffffffffffffffffffff16815260200190815260200160002060008c815260200190815260200160002081905550806003600089888154811061187a5761187961330f565b5b906000526020600020906006020160010160009054906101000a900473ffffffffffffffffffffffffffffffffffffffff1673ffffffffffffffffffffffffffffffffffffffff1673ffffffffffffffffffffffffffffffffffffffff16815260200190815260200160002060007f455448000000000000000000000000000000000000000000000000000000000081526020019081526020016000205461192291906131ae565b600360008988815481106119395761193861330f565b5b906000526020600020906006020160010160009054906101000a900473ffffffffffffffffffffffffffffffffffffffff1673ffffffffffffffffffffffffffffffffffffffff1673ffffffffffffffffffffffffffffffffffffffff16815260200190815260200160002060007f4554480000000000000000000000000000000000000000000000000000000000815260200190815260200160002081905550611e5d565b6001808111156119f2576119f1612be3565b5b8b6001811115611a0557611a04612be3565b5b1415611e5c5781600360003373ffffffffffffffffffffffffffffffffffffffff1673ffffffffffffffffffffffffffffffffffffffff16815260200190815260200160002060008c815260200190815260200160002054611a6791906132db565b600360003373ffffffffffffffffffffffffffffffffffffffff1673ffffffffffffffffffffffffffffffffffffffff16815260200190815260200160002060008c81526020019081526020016000208190555080600360003373ffffffffffffffffffffffffffffffffffffffff1673ffffffffffffffffffffffffffffffffffffffff16815260200190815260200160002060007f4554480000000000000000000000000000000000000000000000000000000000815260200190815260200160002054611b3791906131ae565b600360003373ffffffffffffffffffffffffffffffffffffffff1673ffffffffffffffffffffffffffffffffffffffff16815260200190815260200160002060007f45544800000000000000000000000000000000000000000000000000000000008152602001908152602001600020819055508160036000898881548110611bc357611bc261330f565b5b906000526020600020906006020160010160009054906101000a900473ffffffffffffffffffffffffffffffffffffffff1673ffffffffffffffffffffffffffffffffffffffff1673ffffffffffffffffffffffffffffffffffffffff16815260200190815260200160002060008c815260200190815260200160002054611c4b91906131ae565b60036000898881548110611c6257611c6161330f565b5b906000526020600020906006020160010160009054906101000a900473ffffffffffffffffffffffffffffffffffffffff1673ffffffffffffffffffffffffffffffffffffffff1673ffffffffffffffffffffffffffffffffffffffff16815260200190815260200160002060008c8152602001908152602001600020819055508060036000898881548110611cfb57611cfa61330f565b5b906000526020600020906006020160010160009054906101000a900473ffffffffffffffffffffffffffffffffffffffff1673ffffffffffffffffffffffffffffffffffffffff1673ffffffffffffffffffffffffffffffffffffffff16815260200190815260200160002060007f4554480000000000000000000000000000000000000000000000000000000000815260200190815260200160002054611da391906132db565b60036000898881548110611dba57611db961330f565b5b906000526020600020906006020160010160009054906101000a900473ffffffffffffffffffffffffffffffffffffffff1673ffffffffffffffffffffffffffffffffffffffff1673ffffffffffffffffffffffffffffffffffffffff16815260200190815260200160002060007f45544800000000000000000000000000000000000000000000000000000000008152602001908152602001600020819055505b5b505050508080611e6c90613368565b9150506113b1565b505b60008280549050118015611ed3575081600081548110611e9957611e9861330f565b5b90600052602060002090600602016003015482600081548110611ebf57611ebe61330f565b5b906000526020600020906006020160050154145b156120c05760005b60018380549050611eec91906132db565b81101561202d5782600182611f0191906131ae565b81548110611f1257611f1161330f565b5b9060005260206000209060060201838281548110611f3357611f3261330f565b5b9060005260206000209060060201600082015481600001556001820160009054906101000a900473ffffffffffffffffffffffffffffffffffffffff168160010160006101000a81548173ffffffffffffffffffffffffffffffffffffffff021916908373ffffffffffffffffffffffffffffffffffffffff1602179055506001820160149054906101000a900460ff168160010160146101000a81548160ff02191690836001811115611fea57611fe9612be3565b5b021790555060028201548160020155600382015481600301556004820154816004015560058201548160050155905050808061202590613368565b915050611edb565b508180548061203f5761203e613489565b5b60019003818190600052602060002090600602016000808201600090556001820160006101000a81549073ffffffffffffffffffffffffffffffffffffffff02191690556001820160146101000a81549060ff0219169055600282016000905560038201600090556004820160009055600582016000905550509055611e76565b505050505050565b600281815481106120d857600080fd5b906000526020600020016000915090505481565b80600073ffffffffffffffffffffffffffffffffffffffff166001600083815260200190815260200160002060010160009054906101000a900473ffffffffffffffffffffffffffffffffffffffff1673ffffffffffffffffffffffffffffffffffffffff161415612193576040517f08c379a000000000000000000000000000000000000000000000000000000000815260040161218a90613504565b60405180910390fd5b82600360003373ffffffffffffffffffffffffffffffffffffffff1673ffffffffffffffffffffffffffffffffffffffff1681526020019081526020016000206000848152602001908152602001600020541015612226576040517f08c379a000000000000000000000000000000000000000000000000000000000815260040161221d90613570565b60405180910390fd5b82600360003373ffffffffffffffffffffffffffffffffffffffff1673ffffffffffffffffffffffffffffffffffffffff16815260200190815260200160002060008481526020019081526020016000205461228291906132db565b600360003373ffffffffffffffffffffffffffffffffffffffff1673ffffffffffffffffffffffffffffffffffffffff1681526020019081526020016000206000848152602001908152602001600020819055506001600083815260200190815260200160002060010160009054906101000a900473ffffffffffffffffffffffffffffffffffffffff1673ffffffffffffffffffffffffffffffffffffffff1663a9059cbb33856040518363ffffffff1660e01b8152600401612347929190613590565b6020604051808303816000875af1158015612366573d6000803e3d6000fd5b505050506040513d601f19601f8201168201806040525081019061238a91906135f1565b50505050565b60606005600084815260200190815260200160002060008360018111156123ba576123b9612be3565b5b8152602001908152602001600020805480602002602001604051908101604052809291908181526020016000905b828210156124dd57838290600052602060002090600602016040518060e0016040529081600082015481526020016001820160009054906101000a900473ffffffffffffffffffffffffffffffffffffffff1673ffffffffffffffffffffffffffffffffffffffff1673ffffffffffffffffffffffffffffffffffffffff1681526020016001820160149054906101000a900460ff1660018111156124905761248f612be3565b5b60018111156124a2576124a1612be3565b5b8152602001600282015481526020016003820154815260200160048201548152602001600582015481525050815260200190600101906123e8565b50505050905092915050565b80600360003373ffffffffffffffffffffffffffffffffffffffff1673ffffffffffffffffffffffffffffffffffffffff16815260200190815260200160002060007f4554480000000000000000000000000000000000000000000000000000000000815260200190815260200160002054101561259c576040517f08c379a000000000000000000000000000000000000000000000000000000000815260040161259390613469565b60405180910390fd5b80600360003373ffffffffffffffffffffffffffffffffffffffff1673ffffffffffffffffffffffffffffffffffffffff16815260200190815260200160002060007f455448000000000000000000000000000000000000000000000000000000000081526020019081526020016000205461261891906132db565b600360003373ffffffffffffffffffffffffffffffffffffffff1673ffffffffffffffffffffffffffffffffffffffff16815260200190815260200160002060007f45544800000000000000000000000000000000000000000000000000000000008152602001908152602001600020819055503373ffffffffffffffffffffffffffffffffffffffff16816040516126b09061364f565b60006040518083038185875af1925050503d80600081146126ed576040519150601f19603f3d011682016040523d82523d6000602084013e6126f2565b606091505b50505050565b80600073ffffffffffffffffffffffffffffffffffffffff166001600083815260200190815260200160002060010160009054906101000a900473ffffffffffffffffffffffffffffffffffffffff1673ffffffffffffffffffffffffffffffffffffffff16141561279f576040517f08c379a000000000000000000000000000000000000000000000000000000000815260040161279690613504565b60405180910390fd5b6001600083815260200190815260200160002060010160009054906101000a900473ffffffffffffffffffffffffffffffffffffffff1673ffffffffffffffffffffffffffffffffffffffff166323b872dd3330866040518463ffffffff1660e01b815260040161281293929190613664565b6020604051808303816000875af1158015612831573d6000803e3d6000fd5b505050506040513d601f19601f8201168201806040525081019061285591906135f1565b5082600360003373ffffffffffffffffffffffffffffffffffffffff1673ffffffffffffffffffffffffffffffffffffffff1681526020019081526020016000206000848152602001908152602001600020546128b291906131ae565b600360003373ffffffffffffffffffffffffffffffffffffffff1673ffffffffffffffffffffffffffffffffffffffff168152602001908152602001600020600084815260200190815260200160002081905550505050565b612913612a03565b73ffffffffffffffffffffffffffffffffffffffff16612931611125565b73ffffffffffffffffffffffffffffffffffffffff1614612987576040517f08c379a000000000000000000000000000000000000000000000000000000000815260040161297e906133fd565b60405180910390fd5b600073ffffffffffffffffffffffffffffffffffffffff168173ffffffffffffffffffffffffffffffffffffffff1614156129f7576040517f08c379a00000000000000000000000000000000000000000000000000000000081526004016129ee9061370d565b60405180910390fd5b612a0081612a0b565b50565b600033905090565b60008060009054906101000a900473ffffffffffffffffffffffffffffffffffffffff169050816000806101000a81548173ffffffffffffffffffffffffffffffffffffffff021916908373ffffffffffffffffffffffffffffffffffffffff1602179055508173ffffffffffffffffffffffffffffffffffffffff168173ffffffffffffffffffffffffffffffffffffffff167f8be0079c531659141344cd1fd0a4f28419497f9722a3daafe3b4186f6b6457e060405160405180910390a35050565b600080fd5b6000819050919050565b612ae781612ad4565b8114612af257600080fd5b50565b600081359050612b0481612ade565b92915050565b6000819050919050565b612b1d81612b0a565b8114612b2857600080fd5b50565b600081359050612b3a81612b14565b92915050565b600080600060608486031215612b5957612b58612acf565b5b6000612b6786828701612af5565b9350506020612b7886828701612b2b565b9250506040612b8986828701612b2b565b9150509250925092565b612b9c81612b0a565b82525050565b600073ffffffffffffffffffffffffffffffffffffffff82169050919050565b6000612bcd82612ba2565b9050919050565b612bdd81612bc2565b82525050565b7f4e487b7100000000000000000000000000000000000000000000000000000000600052602160045260246000fd5b60028110612c2357612c22612be3565b5b50565b6000819050612c3482612c12565b919050565b6000612c4482612c26565b9050919050565b612c5481612c39565b82525050565b612c6381612ad4565b82525050565b600060e082019050612c7e600083018a612b93565b612c8b6020830189612bd4565b612c986040830188612c4b565b612ca56060830187612c5a565b612cb26080830186612b93565b612cbf60a0830185612b93565b612ccc60c0830184612b93565b98975050505050505050565b612ce181612bc2565b8114612cec57600080fd5b50565b600081359050612cfe81612cd8565b92915050565b60008060408385031215612d1b57612d1a612acf565b5b6000612d2985828601612cef565b9250506020612d3a85828601612af5565b9150509250929050565b6000602082019050612d596000830184612b93565b92915050565b600060208284031215612d7557612d74612acf565b5b6000612d8384828501612af5565b91505092915050565b6000604082019050612da16000830185612c5a565b612dae6020830184612bd4565b9392505050565b60028110612dc257600080fd5b50565b600081359050612dd481612db5565b92915050565b60008060008060808587031215612df457612df3612acf565b5b6000612e0287828801612dc5565b9450506020612e1387828801612af5565b9350506040612e2487828801612b2b565b9250506060612e3587828801612b2b565b91505092959194509250565b6000602082019050612e566000830184612bd4565b92915050565b60008060408385031215612e7357612e72612acf565b5b6000612e8185828601612af5565b9250506020612e9285828601612cef565b9150509250929050565b600080600060608486031215612eb557612eb4612acf565b5b6000612ec386828701612dc5565b9350506020612ed486828701612af5565b9250506040612ee586828701612b2b565b9150509250925092565b600060208284031215612f0557612f04612acf565b5b6000612f1384828501612b2b565b91505092915050565b6000602082019050612f316000830184612c5a565b92915050565b60008060408385031215612f4e57612f4d612acf565b5b6000612f5c85828601612b2b565b9250506020612f6d85828601612af5565b9150509250929050565b60008060408385031215612f8e57612f8d612acf565b5b6000612f9c85828601612af5565b9250506020612fad85828601612dc5565b9150509250929050565b600081519050919050565b600082825260208201905092915050565b6000819050602082019050919050565b612fec81612b0a565b82525050565b612ffb81612bc2565b82525050565b61300a81612c39565b82525050565b61301981612ad4565b82525050565b60e0820160008201516130356000850182612fe3565b5060208201516130486020850182612ff2565b50604082015161305b6040850182613001565b50606082015161306e6060850182613010565b5060808201516130816080850182612fe3565b5060a082015161309460a0850182612fe3565b5060c08201516130a760c0850182612fe3565b50505050565b60006130b9838361301f565b60e08301905092915050565b6000602082019050919050565b60006130dd82612fb7565b6130e78185612fc2565b93506130f283612fd3565b8060005b8381101561312357815161310a88826130ad565b9750613115836130c5565b9250506001810190506130f6565b5085935050505092915050565b6000602082019050818103600083015261314a81846130d2565b905092915050565b60006020828403121561316857613167612acf565b5b600061317684828501612cef565b91505092915050565b7f4e487b7100000000000000000000000000000000000000000000000000000000600052601160045260246000fd5b60006131b982612b0a565b91506131c483612b0a565b9250827fffffffffffffffffffffffffffffffffffffffffffffffffffffffffffffffff038211156131f9576131f861317f565b5b828201905092915050565b600061320f82612b0a565b915061321a83612b0a565b9250817fffffffffffffffffffffffffffffffffffffffffffffffffffffffffffffffff04831182151516156132535761325261317f565b5b828202905092915050565b600082825260208201905092915050565b7f42616c616e636520746f6f206c6f770000000000000000000000000000000000600082015250565b60006132a5600f8361325e565b91506132b08261326f565b602082019050919050565b600060208201905081810360008301526132d481613298565b9050919050565b60006132e682612b0a565b91506132f183612b0a565b9250828210156133045761330361317f565b5b828203905092915050565b7f4e487b7100000000000000000000000000000000000000000000000000000000600052603260045260246000fd5b600061334982612b0a565b9150600082141561335d5761335c61317f565b5b600182039050919050565b600061337382612b0a565b91507fffffffffffffffffffffffffffffffffffffffffffffffffffffffffffffffff8214156133a6576133a561317f565b5b600182019050919050565b7f4f776e61626c653a2063616c6c6572206973206e6f7420746865206f776e6572600082015250565b60006133e760208361325e565b91506133f2826133b1565b602082019050919050565b60006020820190508181036000830152613416816133da565b9050919050565b7f496e7375666669656e742062616c616e63650000000000000000000000000000600082015250565b600061345360128361325e565b915061345e8261341d565b602082019050919050565b6000602082019050818103600083015261348281613446565b9050919050565b7f4e487b7100000000000000000000000000000000000000000000000000000000600052603160045260246000fd5b7f546f6b656e20646f6573206e6f742065786973742e0000000000000000000000600082015250565b60006134ee60158361325e565b91506134f9826134b8565b602082019050919050565b6000602082019050818103600083015261351d816134e1565b9050919050565b7f496e73756666696369656e742062616c616e6365000000000000000000000000600082015250565b600061355a60148361325e565b915061356582613524565b602082019050919050565b600060208201905081810360008301526135898161354d565b9050919050565b60006040820190506135a56000830185612bd4565b6135b26020830184612b93565b9392505050565b60008115159050919050565b6135ce816135b9565b81146135d957600080fd5b50565b6000815190506135eb816135c5565b92915050565b60006020828403121561360757613606612acf565b5b6000613615848285016135dc565b91505092915050565b600081905092915050565b50565b600061363960008361361e565b915061364482613629565b600082019050919050565b600061365a8261362c565b9150819050919050565b60006060820190506136796000830186612bd4565b6136866020830185612bd4565b6136936040830184612b93565b949350505050565b7f4f776e61626c653a206e6577206f776e657220697320746865207a65726f206160008201527f6464726573730000000000000000000000000000000000000000000000000000602082015250565b60006136f760268361325e565b91506137028261369b565b604082019050919050565b60006020820190508181036000830152613726816136ea565b905091905056fea2646970667358221220d1cbe919438f6eadc5215f4fbb21a9e79bbf1f20646d86d124f9c5eb7f12cd9264736f6c634300080a0033",
  "immutableReferences": {},
  "source": "// SPDX-License-Identifier: MIT\npragma solidity ^0.8.0;\npragma experimental ABIEncoderV2;\n\nimport \"./Wallet.sol\";\n\ncontract Dex is Wallet { \n    \n    enum Side { \n        BUY, \n        SELL\n    }\n\n    struct Order { \n        uint id; \n        address trader; \n        Side side;\n        bytes32 ticker;\n        uint amount;\n        uint price;\n        uint filled;\n    }\n\n    uint public nextOrderId = 0;\n\n    mapping(bytes32 => mapping (uint => Order[])) public orderBook;\n\n    function getOrderBook(bytes32 ticker, Side side) view public returns (Order[] memory) { \n        return orderBook[ticker][uint(side)];\n    }\n\n    function createLimitOrder(Side side, bytes32 ticker, uint amount, uint price) public { \n       \n     if(side == Side.BUY){\n            require(balances[msg.sender][\"ETH\"] >= amount * price, \"Balance too low\");\n        }\n        if(side == Side.SELL){\n            require(balances[msg.sender][ticker] >= amount, \"Balance too low\");\n        }\n\n        Order[] storage orders = orderBook[ticker][uint(side)];\n        orders.push(Order(nextOrderId, msg.sender, side, ticker, amount, price, 0));\n        Order storage newOrder = orders[orders.length - 1];\n\n        uint i = orders.length > 0 ? orders.length - 1 : 0;\n\n        if(side == Side.BUY){\n            while(i > 0){\n                if(orders[i - 1].price > orders[i].price) {\n                    break;   \n                }\n                Order memory orderToMove = orders[i - 1];\n                orders[i - 1] = orders[i];\n                orders[i] = orderToMove;\n                i--;\n            }\n        }\n        else if (side == Side.SELL){\n            while(i > 0){\n                if(orders[i - 1].price < orders[i].price) {\n                    break;   \n                }\n                Order memory orderToMove = orders[i - 1];\n                orders[i - 1] = orders[i];\n                orders[i] = orderToMove;\n                i--;\n            }\n        }\n        nextOrderId++;\n    }\n\n     function createMarketOrder(Side side, bytes32 ticker, uint amount) public{\n        if(side == Side.SELL){\n            require(balances[msg.sender][ticker] >= amount, \"Insuffient balance\");\n        }\n        \n        uint orderBookSide;\n        if(side == Side.BUY){\n            orderBookSide = 1;\n        }\n        else{\n            orderBookSide = 0;\n        }\n        Order[] storage orders = orderBook[ticker][orderBookSide];\n\n        uint totalFilled = 0;\n\n        for (uint256 i = 0; i < orders.length && totalFilled < amount; i++) {\n            uint leftToFill = amount - totalFilled;\n            uint availableToFill = orders[i].amount - orders[i].filled;\n            uint filled = 0;\n            if(availableToFill > leftToFill){\n                filled = leftToFill; //Fill the entire market order\n            }\n            else{ \n                filled = availableToFill; //Fill as much as is available in order[i]\n            }\n\n            totalFilled = totalFilled + filled;\n            orders[i].filled = orders[i].filled + filled;\n            uint cost = filled * orders[i].price;\n\n            if(side == Side.BUY){\n                //Verify that the buyer has enough ETH to cover the purchase (require)\n                require(balances[msg.sender][\"ETH\"] >= cost);\n                //msg.sender is the buyer\n                balances[msg.sender][ticker] = balances[msg.sender][ticker] + filled;\n                balances[msg.sender][\"ETH\"] = balances[msg.sender][\"ETH\"] - cost;\n                \n                balances[orders[i].trader][ticker] = balances[orders[i].trader][ticker] - filled;\n                balances[orders[i].trader][\"ETH\"] = balances[orders[i].trader][\"ETH\"] + cost;\n            }\n            else if(side == Side.SELL){\n                //Msg.sender is the seller\n                balances[msg.sender][ticker] = balances[msg.sender][ticker] - filled;\n                balances[msg.sender][\"ETH\"] = balances[msg.sender][\"ETH\"] + cost;\n                \n                balances[orders[i].trader][ticker] = balances[orders[i].trader][ticker] + filled;\n                balances[orders[i].trader][\"ETH\"] = balances[orders[i].trader][\"ETH\"] - cost;\n            }\n            \n        }\n            //Remove 100% filled orders from the orderbook\n        while(orders.length > 0 && orders[0].filled == orders[0].amount){\n            //Remove the top element in the orders array by overwriting every element\n            // with the next element in the order list\n            for (uint256 i = 0; i < orders.length - 1; i++) {\n                orders[i] = orders[i + 1];\n            }\n            orders.pop();\n        }\n        \n    }\n\n\n}",
  "sourcePath": "/Users/nadia/Documents/dex/dexy/contracts/Dex.sol",
  "compiler": {
    "name": "solc",
    "version": "0.8.10+commit.fc410830.Emscripten.clang"
  },
  "schemaVersion": "3.4.3",
  "updatedAt": "2021-12-02T13:34:10.856Z",
  "networkType": "ethereum",
  "devdoc": {
    "kind": "dev",
    "methods": {
      "owner()": {
        "details": "Returns the address of the current owner."
      },
      "renounceOwnership()": {
        "details": "Leaves the contract without owner. It will not be possible to call `onlyOwner` functions anymore. Can only be called by the current owner. NOTE: Renouncing ownership will leave the contract without an owner, thereby removing any functionality that is only available to the owner."
      },
      "transferOwnership(address)": {
        "details": "Transfers ownership of the contract to a new account (`newOwner`). Can only be called by the current owner."
      }
    },
    "version": 1
  },
  "userdoc": {
    "kind": "user",
    "methods": {},
    "version": 1
  }
}